:020000040800F2
:100000005804002001010008070F0008870E0008AF
:10001000050F00086D010008231100080000000012
:100020000000000000000000000000000B0F0008AE
:100030006F01000800000000090F00080D0F000804
:100040001B0100081B0100081B0100081B01000820
:100050001B0100081B0100081B0100081B01000810
:100060001B0100081B0100081B0100081B01000800
:100070001B0100081B0100081B0100081B010008F0
:100080001B0100081B0100081B0100081B010008E0
:100090001B0100081B0100081B0100081B010008D0
:1000A0001B0100081B0100081B0100081B010008C0
:1000B0001B010008990F00081B0100081B01000824
:1000C0001B0100081B0100081B0100081B010008A0
:1000D0001B0100081B0100081B0100081B01000890
:1000E0001B0100081B0100081B010008DFF80CD0F1
:1000F00000F02AF800480047651100085804002065
:100100000648804706480047FEE7FEE7FEE7FEE7B1
:10011000FEE7FEE7FEE7FEE7FEE7FEE7510F000819
:10012000ED000008D2B201E000F8012B491EFBD21D
:1001300070470022F6E710B513460A4604461946F2
:10014000FFF7F0FF204610BD064C074D06E0E068C3
:1001500040F0010394E8070098471034AC42F6D30E
:10016000FFF7C8FFCC110008EC110008FEE770474C
:1001700070B5044600F0FEF80546601C02D0044845
:100180000078044400F0F6F8401BA042FAD370BD9A
:10019000080000202DE9F84FDFF8B891002409F19C
:1001A000040A0AF1040B23460F270BF1040EC9E0E1
:1001B0000125A5402A40AA427DD1674ED1F804C04E
:1001C000ACEB0608B44532D014DCBCF1030F3AD0D6
:1001D00009DCBCF1000F2AD0BCF1010F1CD0BCF12E
:1001E000020F31D11DE0BCF1110F17D0BCF1120F7D
:1001F0002AD119E0B8F5881F19D006DCB8F5803F80
:1002000015D0B8F5801F1FD111E0B8F5001F0ED032
:10021000B8F5041F18D10AE0CB6815E0CB681B1DA8
:1002200012E0CB6808330FE0CB680C330CE08B682E
:100230002BB1012B4FF0080303D0456104E00423E8
:1002400002E0056100E00023FF2A01D8064601E034
:1002500000F104064FEA840501D9A5F12005D6F87E
:10026000008007FA05FC28EA0C0803FA05F548EABD
:100270000508C6F800804D68ED0062D5374DAE69BF
:1002800046F00106AE61AD6924F0030605F00105F4
:100290000095334D06EB050CDCF80850A607360F29
:1002A00007FA06F825EA0805DFF8B880404503D1CB
:1002B0004FF0000817E044E0DFF8AC80404502D181
:1002C0004FF001080FE0DFF8A480404502D14FF065
:1002D000020808E0DFF89880404502D14FF003089B
:1002E00001E04FF0040808FA06F848EA0508CCF8DF
:1002F00008804D68D9F80060ED034D4601D51643DE
:1003000000E096432E604D68DAF80060AD03554674
:1003100001D5164300E096432E604D68DBF800607F
:10032000ED025D4601D5164300E096432E604D6810
:10033000DEF80060AD02754601D5164300E0964335
:100340002E60641C0D682A46E5407FF431AFBDE89D
:10035000F88F00000004014000001110001002405E
:100360000000014000080140000C01400010014065
:100370000014014001488068704700000800002018
:1003800002488168027811448160704708000020AB
:10039000074810B5016841F010010160032000F02A
:1003A00075F8002000F006F800F024F8002010BDD9
:1003B0000020024070B50D4D04464FF47A71287844
:1003C000B1FBF0F00A490968B1FBF0F000F0CCFA9B
:1003D00048B9102C07D200222146501E00F036F8F2
:1003E00000206C6070BD012070BD0000080000207E
:1003F000140000200C4808B5816941F001018161B9
:10040000816901F001010091C16941F08051C16130
:10041000C06900F0805000900448416821F0E0611C
:1004200041F00071416008BD001002400000014031
:10043000002809DB00F01F020121914040098000E3
:1004400000F1E020C0F8001170470000F0B40E4B3E
:100450001B680C46C3F30223C3F10705042D00D922
:100460000425191D072901D2002300E0DB1E012607
:1004700006FA05F1491E214099409E40761E16401D
:100480003143F0BC00F04EBE0CED00E0064900F038
:10049000070208684FF6FF03184040EA0220034AAB
:1004A00010430860704700000CED00E00000FA0502
:1004B0002DE9F0470F46050061D0434E306800F04B
:1004C0000700B84209D2306820F007003843306096
:1004D000306800F00700B84251D128683B4C8107D2
:1004E00012D5400703D5606840F4E060606028786A
:1004F000000703D5606840F4605060606068A968D8
:1005000020F0F000084360602878C00728D06868B1
:10051000012810D02168022810D0890700292EDA7E
:10052000616821F0030101436160FFF723FF80460A
:1005300041F288390DE021688903EFE78901EDE791
:10054000FFF718FFA0EB0801494502D90320BDE8D9
:10055000F0876068696800F00C00B0EB810FEFD1A4
:10056000306800F00700B8420BD9306820F007006F
:1005700038433060306800F00700B84201D00120F5
:10058000E5E72878400705D56068E96820F4E06071
:10059000084360602878000706D56068296920F460
:1005A000605040EAC100606000F018F86168084AD5
:1005B000C1F30311515CC840064908600648006851
:1005C000FFF7F8FE0020C2E70020024000100240C2
:1005D000BC110008140000200C00002012A185B0FE
:1005E0000FC98DE80F0014A0144A006804905168E8
:1005F000134801F00C03042B10D0082B0ED1C1F3CB
:100600008343C9031DF803000AD5516804AAC1F346
:100610004041515C0A4A5043B0FBF1F005B07047CD
:1006200008494843FAE700000203040506070809E1
:100630000A0B0C0D0E0F10100102000000100240FA
:1006400000127A0000093D002DE9F84F040070D037
:100650002078C04DC00749D06868C0F381000128E8
:1006600007D06868C0F38100022809D16868C00318
:1006700006D52868800339D560680028E7D035E0C2
:100680006068B0F5803F0BD010B1B0F5A02F11D04D
:10069000286820F480302860286820F4802002E058
:1006A000286840F480302860606890B1FFF762FEEF
:1006B00006460AE0286840F480202860F0E700BF82
:1006C000FFF758FE801B642873D828688003F7D58D
:1006D0000CE0FFF74FFE064605E000BFFFF74AFEBD
:1006E000801B6428F0D828688003F7D420789A4EBD
:1006F00080074FF001094FF0000839D5686810F005
:100700000C0F07D06868C0F38100022809D168681F
:10071000C00306D42868800714D52069012808D1B1
:1007200010E02069B0B1C6F80090FFF723FE07463D
:1007300005E00AE1FFF71EFEC01B0228C4D82868A6
:100740008007F7D52868616920F0F80040EAC10009
:1007500028600DE0C6F80080FFF70CFE074604E0B5
:10076000FFF708FEC01B022823D828688007F7D4AB
:10077000207800072CD57948A169D9B1C0F800903C
:10078000FFF7F8FD074604E0FFF7F4FDC01B022861
:100790000FD8686A8007F7D571484FF4FA5100689E
:1007A000B0FBF1F0009000BF0098411E0091FAD21A
:1007B0000EE080E0C0F80080FFF7DCFD074604E0B3
:1007C000FFF7D8FDC01B022875D8686A8007F7D4E8
:1007D0002078400760D5E8690027C00008D4E869A0
:1007E00040F08050E861E869012700F080500090F7
:1007F0005C480168C90513D40168834641F48071DF
:100800000160FFF7B7FD824606E000BFFFF7B2FDCB
:10081000A0EB0A0064284ED8DBF80000C005F5D52F
:10082000E06801280AD008B1052813D0286A20F012
:1008300001002862286A20F0040002E0286A40F0E3
:1008400001002862E06841F2883B98B1FFF792FD11
:1008500082460BE0286A40F004002862EEE700BF01
:10086000FFF788FDA0EB0A0159455AD8286A80078E
:10087000F6D50CE0FFF77EFD824605E0FFF77AFD36
:10088000A0EB0A0159454CD8286A8007F6D41FB15D
:10089000E86920F08050E861E06988B36968C1F3D5
:1008A0008101022944D00228C6F8608004D0FFF7F5
:1008B00061FD044638E034E0FFF75CFD074604E0E4
:1008C000FFF758FDC01B02282BD828688001F7D4F9
:1008D000206AB0F5803F05D16868A16820F4003037
:1008E00008436860D4E908010843696821F4741179
:1008F00008436860C6F86090FFF73CFD044606E0D8
:1009000025E000BFFFF736FD001B022809D8286844
:100910008001F7D51BE000BFFFF72CFD001B02286C
:1009200002D90320BDE8F88F28688001F4D40EE0D6
:100930000128F7D06868226A00F48031914204D11E
:10094000616A00F47010884201D00120EAE70020BB
:10095000E8E70000001002400000424280044242EA
:10096000140000200070004010B5401EB0F1807FE0
:1009700001D3012010BD4FF0E02460610F2160170A
:1009800000F0D0FB0020A06107202061002010BDF6
:100990007047704770B590F83C20012A19D00124A7
:1009A00000F83C4F0222427050F83C3C5A689D6867
:1009B00022F070060A684968324325F08005294311
:1009C0005A6050F83C2C9160447000210170084638
:1009D00070BD022070BD10B5040003D094F83D0036
:1009E00010B107E0012010BD002084F83C00204633
:1009F00000F00CF8022084F83D00211D206800F072
:100A0000D1FA012084F83D00002010BD00B585B06A
:100A100000210091019102910391006812498842DE
:100A200020D11248C16941F00201C161C16901F0E0
:100A300002010491816941F0040181618069694684
:100A400000F004000490402000900120029008482B
:100A5000FFF7A0FB002211461D20FFF7F7FC1D2029
:100A6000FFF7E6FC05B000BD0004004000100240A6
:100A70000008014070B5044690F83C00012817D0EA
:100A8000012584F83C50022084F83D0020688268EB
:100A900022F0770222F47F4282600868502830D02A
:100AA0000DDC20284DD005DC98B310283BD148E060
:100AB000022070BD302844D0402834D139E060286D
:100AC00028D0702806D0B0F5805F2CD0B0F5005F3C
:100AD00029D10AE0CB68D1E90121206800F0A5FA0C
:100AE0002068816841F0770109E0CB68D1E90121F4
:100AF000206800F09AFA2068816841F480418160A2
:100B000011E0CA684968206800F0A1FA5021206805
:100B100007E016E0CA684968206800F0D5FA60214D
:100B2000206800F08CFA84F83D50002084F83C00E6
:100B300070BDCA684968206800F089FA40212068C1
:100B4000EFE7226801461046EBE700000068054920
:100B5000884206D104480068416A044A11600021B5
:100B6000416270470004004018000020000000208F
:100B70002DE9F041044690F83C000D4601283BD099
:100B8000012684F83C60022084F83D009AB3042AD0
:100B900044D02068082A53D0D5E90027E968036AC1
:100BA00023F480530362D0F81CC0036A2CF4407C09
:100BB0004CEA07274FF6FF7C27F470470CEA013117
:100BC0003943770323F4005307EA02321A43C16121
:100BD00002622068C16921F44061C1612068C16975
:100BE000AA6841EA0221C16184F83D60002084F8CE
:100BF0003C00BDE8F08101E00220FAE7D5E90012EF
:100C0000EB68206800F034FA2068816921F00C015B
:100C1000816120688169AA6811430FE0D5E900125B
:100C2000EB68206800F062FA2068816921F4406175
:100C3000816120688169AA6841EA02218161D3E764
:100C4000D5E9002C2F7B016A21F480710162C16912
:100C5000036A21F0030141EA0C0121F0F00C39078D
:100C60004FF400774CEA116123F4007307EA022283
:100C70001A43C16102622068C16921F00C01C1619F
:100C80002068C169AA681143ADE710B5040003D01C
:100C900094F83D0010B107E0012010BD002084F859
:100CA0003C00204600F00CF8022084F83D00211D95
:100CB000206800F077F9012084F83D00002010BD85
:100CC000704710B50268044631B1042908D00829DC
:100CD0001AD00C2908D11BE0D06840F0020002E0D5
:100CE000D06840F00400D0600122206800F090F944
:100CF0002068816801F00701062903D0016841F0EE
:100D000001010160002010BDD06840F00800EAE752
:100D1000D06840F01000E6E770B50446006801694D
:100D20004FF00005C943890715D4C168C943890735
:100D300011D4E91E016101202077206880698007B5
:100D4000204602D0FFF702FF04E000F098F82046AA
:100D500000F096F8257720680169C943490717D440
:100D6000C168C943490713D46FF00401016102202F
:100D700020772068806910F4407F204602D0FFF77A
:100D8000E5FE04E000F07BF8204600F079F82577D6
:100D900020680169C943090716D4C168C943090716
:100DA00012D46FF008010161042020772068C06927
:100DB0008007204602D0FFF7C9FE04E000F05FF88C
:100DC000204600F05DF8257720680169C943C9060F
:100DD00017D4C168C943C90613D46FF0100101616B
:100DE000082020772068C06910F4407F204602D098
:100DF000FFF7ACFE04E000F042F8204600F040F8B7
:100E0000257720680169C943C90708D1C168C9436A
:100E1000C90704D1891E0161204600F032F820681C
:100E20000169C943090609D4C168C943090605D443
:100E30006FF0800101612046FFF7AAFD206801697B
:100E4000C943490609D4C168C943490605D46FF0AE
:100E500040010161204600F015F820680169C9438E
:100E600089060BD4C168C943890607D46FF02001F5
:100E700001612046BDE87040FFF78BBD70BD704733
:100E8000704770477047FEE710B58AB000241C48D1
:100E9000049405940694079408940994009401948A
:100EA000029416490394016041F63F71C0E90114B0
:100EB0004FF6FF71C0E903148461FFF78CFD4FF416
:100EC0008050049004A90E48FFF7D4FD0C48FFF7AA
:100ED000DCFE089408A90A480994FFF75BFD02208C
:100EE00000900120CDE901040F2003900022694603
:100EF0000348FFF73DFE0AB010BD000000040040AB
:100F000018000020FEE7704770477047FFF738BAB7
:100F100030B58FB028216846FFF70BF914210AA8D5
:100F2000FFF707F901252804CDE9005000240794B4
:100F30006846FFF789FB0F200A90CDE90B540D940A
:100F400000210AA80E94FFF7B3FA0FB030BD0000DD
:100F50000D48016841F00101016041680B4A1140F0
:100F6000416001680A4A11400160016821F4802152
:100F70000160416821F4FE0141604FF41F0181606E
:100F80000449C00308607047001002400000FFF8E9
:100F9000FFFFF6FE08ED00E00148FFF7BDBE0000D0
:100FA00018000020F0B50268164B174C174D4FF093
:100FB0008047984205D0B84203D0A04201D0A84251
:100FC00003D122F070064A683243984205D0B842F5
:100FD00003D0A04201D0A84203D122F44074CA68D1
:100FE00022434C6922F08002224302608A68C26276
:100FF0000A688262984201D1096901630121416155
:10100000F0BD0000002C014000040040000800403A
:1010100010B501F01F030121046A99408C4304625A
:10102000016A9A401143016210BD10B5846842EA1A
:10103000032224F47F440A432243826010BD826865
:1010400022F070020A4342F007018160704710B538
:10105000036A046A24F001040462846924F0F00441
:1010600044EA021423F00A020A438461026210BDBA
:1010700070B5046A24F0010404628469056A0F4EA5
:10108000B04208D0B0F1804F05D00D4EB04202D032
:101090000C4EB04203D124F00304144301E044F0A9
:1010A00001041A0724F0F00444EA126225F00A034E
:1010B00001F00A0119438261016270BD002C0140F8
:1010C000000400400008004010B5036A23F010033C
:1010D00003628369046A23F4704343EA023224F012
:1010E000A00343EA01118261016210BD30B5046AB8
:1010F00024F0100404628469056A24F4407444EA0C
:10110000022222F470444FF6FF7202EA03322243B5
:10111000A02425F0A00304EA0111194382610162B1
:1011200030BDFEE70907090E002804DB00F1E020CE
:1011300080F80014704700F00F0000F1E02080F804
:10114000141D704702E008C8121F08C1002AFAD116
:1011500070477047002001E001C1121F002AFBD137
:101160007047000008B5FFF713F9FFF7D1FE1048EC
:10117000816941F020018161816901F020010091C4
:10118000816941F004018161806900F004000090F0
:10119000FFF77AFE00210748FFF793FD054D064C47
:1011A0002868406A60600A20FEF7E2FFF8E7000066
:1011B0000010024018000020000000200000000085
:1011C000000000000102030406070809EC110008F2
:1011D000000000201800000044110008041200085C
:1011E0001800002040040000541100080000000016
:1011F00000000000010000001000000000000000DE
:041200000024F400D2
:04000005080000ED02
:00000001FF
