:020000040800F2
:1000000048040020010100082F140008791300089B
:100010002D140008F5040008D514000800000000A5
:100020000000000000000000000000003314000881
:10003000F70400080000000031140008351400081F
:100040001B0100081B0100081B0100081B01000820
:100050001B0100081B0100081B0100081B01000810
:100060001B0100081B0100081B0100081B01000800
:100070001B0100081B0100081B0100081B010008F0
:100080001B0100081B0100081B0100081B010008E0
:100090001B0100081B0100081B0100081B010008D0
:1000A0001B0100081B0100081B0100081B010008C0
:1000B0001B0100081B0100081B0100081B010008B0
:1000C0001B0100081B0100081B0100081B010008A0
:1000D0001B0100081B0100081B0100081B01000890
:1000E0001B0100081B0100081B010008DFF80CD0F1
:1000F00000F080F90048004715150008480400206A
:100100000648804706480047FEE7FEE7FEE7FEE7B1
:10011000FEE7FEE7FEE7FEE7FEE7FEE78D140008D8
:10012000ED000008202A04DB203A21FA02F0002129
:10013000704721FA02F3D040C2F1200291400843F7
:1001400019467047D2B201E000F8012B491EFBD2DC
:1001500070470022F6E710B513460A4604461946D2
:10016000FFF7F0FF204610BD2DE9FE4F81EA0304A2
:1001700004F0004421F0004100944FF0000B23F004
:10018000004350EA01045ED052EA03045BD0C3F39B
:100190000A54C1F30A552C44A4F2F3340194A0FB91
:1001A0000254C1F3130141F48011C3F3130343F468
:1001B000801301FB024400FB034E840A970A44EAC1
:1001C000815447EA8357A4FB076802958D0A05FB13
:1001D00007854FEA932C04FB0C542705029D4FEA38
:1001E000065847EA1637B5EB08056EEB070C870E85
:1001F000920E47EA811742EA8312A7FB0201B6EB8F
:100200000B0164EB00042B0D43EA0C335E1844EB46
:100210001C50DA465146E7FB0201C5F313044FEACE
:100220000B3343EA14534FEA0432019C43EA0603BA
:10023000A4F10C040294009CCDE900B400F08CF809
:1002400003B0BDE8F08F00200146F9E770B521F05A
:10025000004303430CD0C1F30A550024D5EB040539
:1002600064EB0403D617AD1AB34102DB002001464C
:1002700070BD201841EB025170BD0EB540F2334104
:1002800002910021CDE900110A460B4600F064F806
:1002900003B000BD01F0004330B421F0004150EA4A
:1002A000010206D00A0DA2F56072C1F31301002A03
:1002B00002DC30BC00207047440F44EAC104C10096
:1002C000E01830BC00EBC250AFF300800029A8BF9B
:1002D0007047401C490008BF20F00100704710B46F
:1002E000B0FA80FC00FA0CF050EA010404BF10BC24
:1002F000704749B1CCF1200421FA04F411FA0CF151
:1003000018BF012121430843A3EB0C01CB1D4FEA89
:1003100000614FEA102042BF002010BC704700EB84
:10032000C35010440029A4BF10BC7047401C4900B2
:1003300008BF20F0010010BC704710B5141E73F107
:10034000000408DA401C41F1000192185B411A4395
:1003500001D120F0010010BD2DE9F04D92469B46E1
:1003600011B1B1FA81F202E0B0FA80F22032904687
:1003700000F052F804460F4640EA0A0041EA0B0139
:1003800053465A46084313D0114653EA010019D088
:10039000C8F140025046FFF7C5FE05460E465046DE
:1003A0005946424600F038F8084305D0012004E0E1
:1003B00020463946BDE8F08D0020054346EAE07648
:1003C0002C4337430A986305E40AA0EB0800002297
:1003D000FD0A44EA47540A3002D500200146E9E705
:1003E000010510196941DDE9084500196941BDE8B9
:1003F000F04DA2E7064C074D06E0E06840F001032F
:1004000094E8070098471034AC42F6D3FFF772FE29
:1004100098150008B8150008202A04DB203A00FAD5
:1004200002F1002070479140C2F1200320FA03F34B
:10043000194390407047000070B504460068816819
:10044000C943C9071CD1816821F00101816000F016
:10045000A9FB05460FE000BF00F0A4FB401B0228EB
:1004600009D9A06A40F01000A062E06A40F00100E3
:10047000E062012070BD20688068C043C007EBD0F7
:10048000002070BDF8B5002604460096006881681B
:10049000C943C90728D0816841F001018160134830
:1004A00013490068B0FBF1F000E0401E0090002806
:1004B000FBD100F077FB054611E000BF00F072FBB6
:1004C000401B02280BD9A06A40F01000A062E06A2D
:1004D00040F00100E06284F824600120F8BD20684B
:1004E0008068C043C007E9D10020F8BD1400002097
:1004F00040420F00FEE77047F8B50024009490F8E2
:1005000024202546012A12D0012280F824204A689E
:100510001F23072A0DD20668776B521E02EB820258
:1005200093409F430B6893401F43776319E0022079
:10053000F8BD06680D2A0AD2376BD21F02EB820281
:1005400093409F430B6893401F43376309E0F76A6A
:100550000D3A02EB820293409F430B6893401F4386
:10056000F7620A68072306680A2A0AD3F7680A3A74
:1005700002EB420293409F438B6893401F43F76016
:1005800008E0376902EB420293409F438B68934037
:100590001F4337610A68102A01D0112A20D1124B5B
:1005A00002689A4217D193681B0219D4936843F4E6
:1005B000000393600968102912D10C490C4A09689C
:1005C000B1FBF2F101EB8101490000E0491E00910D
:1005D0000029FBD104E0816A41F0200181620124FD
:1005E00080F824502046F8BD00240140140000206B
:1005F00040420F000068C06C704700002DE9F041D8
:100600004FF0000704003D467ED0A06A002628B9BE
:10061000E66284F82460204600F07EF82046FFF76A
:100620000BFFA16AC90600D420B1A06A40F01000F7
:10063000A06269E0A16A21F4885141F00201A1623F
:100640006268E169237B0A4347EA43010A43A168E0
:100650004FF48077B94209D0012907D05FF000013B
:1006600094F814C0BCF1010F02D00AE03946F7E754
:10067000F3B1A36A43F02003A362E36A43F00103EA
:10068000E3622368D3F804C02CF4694C4CEA010CF3
:10069000C3F804C021688B68DFF870C003EA0C035C
:1006A00013438B60A168B9420BD0012909D00CE03B
:1006B000DFF85CC0A3690CEB43330B4343F40061E8
:1006C000DFE7218A0D05A5F580152168CB6A23F4A3
:1006D00070032B43CB62216889680E4B194091420D
:1006E00008D1E662A16A21F0020141F00101A16294
:1006F000BDE8F081A06A20F0020040F01000A06286
:10070000E06A40F00100E0620120F1E7FDF7E1FF5F
:1007100000E0FFFFFE0E1FFF00B585B00021009135
:1007200001910291039100680E49884218D10E4848
:10073000816941F400718161816901F40071049162
:10074000816941F0040181618069694600F004001B
:1007500004900120009003200190044800F02CF93F
:1007600005B000BD00240140001002400008014017
:100770002DE9F84300260D460446009600F012FAD3
:10078000804620688168C90508D5A06A40F020002D
:10079000A06284F824600120BDE8F8834168C9059F
:1007A00003D4C06A10F4700F26D0022000F08AFA39
:1007B00038490968B1FBF0F72068036936490B42F4
:1007C0004FEA61014FEAA1121BD1C3684FEA611CD5
:1007D00013EA0C0F15D103690B4221D1C0681042F6
:1007E0001ED114201FE0681C06D045B300F0DAF9D2
:1007F000A0EB0800A84222D8206800688007F2D544
:100800002AE003690B4202D1C168114206D0026995
:1008100022490A4206D1C068084203D1542002E0AE
:10082000292000E0FC204743009813E0681C0ED00C
:100830002DB100F0B7F9A0EB0800A84207D9A06AD3
:1008400040F00400A06284F824600320A4E700982C
:10085000401C0090B842E9D321686FF01200086094
:10086000A06A40F40070A06220688068C0F3424033
:1008700007280CD1207B50B9A06A20F48070A062B8
:10088000A06AC00403D4A06A40F00100A062002066
:1008900082E7000014000020244992244992240099
:1008A00070B5044690F8240001280DD0012084F88A
:1008B00024002046FFF7E6FD02004FF0000005D0BF
:1008C00084F82400104670BD022070BDA16A40F279
:1008D0000123994341F48071A1621F4D23681F4990
:1008E000AB4218D10E6816F4702F14D0A66A46F4E5
:1008F0008016A6620E68760505D5A66A26F400560F
:1009000046F48056A662A66AF6040AD5E66A26F080
:100910000606E66206E0A66A26F48016A6625E680F
:10092000E9E7E06284F824006FF0020018602068B4
:100930008368C3F34243072B05D1A84208D1096855
:1009400011F4702F04D0816841F480118160B9E7FF
:10095000816841F4A001F9E7002801400424014026
:1009600010B5044690F82400012807D0012084F82F
:1009700024002046FFF760FD10B107E0022010BD03
:10098000A16A21F4885141F00101A162002184F89B
:10099000241010BD70B5044600F004F90546601C33
:1009A00002D004480078044400F0FCF8401BA04248
:1009B000FAD370BD080000202DE9F84FDFF8B89198
:1009C000002409F1040A0AF1040B23460F270BF156
:1009D000040EC9E00125A5402A40AA427DD1674EF8
:1009E000D1F804C0ACEB0608B44532D014DCBCF13D
:1009F000030F3AD009DCBCF1000F2AD0BCF1010F83
:100A00001CD0BCF1020F31D11DE0BCF1110F17D089
:100A1000BCF1120F2AD119E0B8F5881F19D006DCF5
:100A2000B8F5803F15D0B8F5801F1FD111E0B8F59B
:100A3000001F0ED0B8F5041F18D10AE0CB6815E0EE
:100A4000CB681B1D12E0CB6808330FE0CB680C337A
:100A50000CE08B682BB1012B4FF0080303D04561EC
:100A600004E0042302E0056100E00023FF2A01D82E
:100A7000064601E000F104064FEA840501D9A5F11C
:100A80002005D6F8008007FA05FC28EA0C0803FACE
:100A900005F548EA0508C6F800804D68ED0062D506
:100AA000374DAE6946F00106AE61AD6924F003062C
:100AB00005F001050095334D06EB050CDCF80850F8
:100AC000A607360F07FA06F825EA0805DFF8B8800A
:100AD000404503D14FF0000817E044E0DFF8AC8058
:100AE000404502D14FF001080FE0DFF8A4804045F7
:100AF00002D14FF0020808E0DFF89880404502D1AB
:100B00004FF0030801E04FF0040808FA06F848EA3D
:100B10000508CCF808804D68D9F80060ED034D4613
:100B200001D5164300E096432E604D68DAF8006068
:100B3000AD03554601D5164300E096432E604D683F
:100B4000DBF80060ED025D4601D5164300E09643F8
:100B50002E604D68DEF80060AD02754601D5164383
:100B600000E096432E60641C0D682A46E5407FF441
:100B700031AFBDE8F88F0000000401400000111003
:100B8000001002400000014000080140000C01403C
:100B900000100140001401400AB1016170470904CE
:100BA000FBE7000001488068704700000800002053
:100BB0000248816802781144816070470800002073
:100BC000074810B5016841F010010160032000F0F2
:100BD00067F8002000F006F800F024F8002010BDAF
:100BE0000020024070B50D4D04464FF47A7128780C
:100BF000B1FBF0F00A490968B1FBF0F000F0A8FB86
:100C000048B9102C07D200222146501E00F028F8C7
:100C100000206C6070BD012070BD00000800002045
:100C2000140000200C4808B5816941F00101816180
:100C3000816901F001010091C16941F08051C161F8
:100C4000C06900F0805000900448416821F0E061E4
:100C500041F00071416008BD0010024000000140F9
:100C6000F0B40E4B1B680C46C3F30223C3F1070517
:100C7000042D00D90425191D072901D2002300E005
:100C8000DB1E012606FA05F1491E214099409E40CF
:100C9000761E16403143F0BC00F01DBC0CED00E0A8
:100CA000064900F0070208684FF6FF03184040EAC3
:100CB0000220034A10430860704700000CED00E07A
:100CC0000000FA0510B529A401461DCC86B08DE8B8
:100CD0001D002AA02A4C006804900020012923D07E
:100CE00002293AD010291DD161682268D20119D594
:100CF000C1F38342C9031DF8020009D5616804AA43
:100D0000C1F34041515C1F4AB2FBF1F1484301E09D
:100D10001D4948436168490204D440005FF0030163
:100D2000B0FBF1F006B010BD226AC2F30121012927
:100D300003D1920701D5C803F4E7022905D1626AFD
:100D4000920702D549F64040ECE70329EAD1216831
:100D50008903E7D54FF22440E4E700F023F9616806
:100D6000C1F38131491C4900DAE7000002030405A0
:100D7000060708090A0B0C0D0E0F101001020000E7
:100D80000010024000127A0000093D002DE9F843EE
:100D900005460078354CC00754D0E0690026C000F5
:100DA00008D4E06940F08050E061E069012600F07D
:100DB000805000902E480168C90512D40168804611
:100DC00041F480710160FFF7EDFE074605E000BFCA
:100DD000FFF7E8FEC01B642823D8D8F80000C00540
:100DE000F6D5206A10F4407021D0A98801F4407132
:100DF00081421CD0206A1F49012220F440700A6001
:100E000000220A602062C00711D0FFF7CBFE074620
:100E100041F2883808E000BFFFF7C4FEC11B41451E
:100E200002D90320BDE8F883206A8007F4D5206A40
:100E3000696820F44070084320621EB1E06920F028
:100E40008050E0612878800705D56068A96820F4A3
:100E50004040084360602878C00605D56068E968AE
:100E600020F48000084360600020DBE700100240AF
:100E700000700040400442422DE9F0470F46050053
:100E800061D0434E306800F00700B84209D23068A4
:100E900020F0070038433060306800F00700B842A7
:100EA00051D128683B4C810712D5400703D56068B3
:100EB00040F4E06060602878000703D5606840F483
:100EC000605060606068A96820F0F00008436060CE
:100ED0002878C00728D06868012810D02168022827
:100EE00010D0890700292EDA616821F0030101433F
:100EF0006160FFF757FE804641F288390DE02168B6
:100F00008903EFE78901EDE7FFF74CFEA0EB08014D
:100F1000494502D90320BDE8F0876068696800F0A0
:100F20000C00B0EB810FEFD1306800F00700B84241
:100F30000BD9306820F0070038433060306800F08B
:100F40000700B84201D00120E5E72878400705D521
:100F50006068E96820F4E060084360602878000772
:100F600006D56068296920F4605040EAC1006060DD
:100F700000F028F86168084AC1F30311515CC840C9
:100F80000649086006480068FFF72CFE0020C2E70B
:100F900000200240001002408015000814000020CC
:100FA0000C0000200448054900684968044AC1F360
:100FB000C221515CC840704714000020001002405C
:100FC0009015000812A185B00FC98DE80F0014A07C
:100FD000144A006804905168134801F00C03042B74
:100FE00010D0082B0ED1C1F38343C9031DF80300B1
:100FF0000AD5516804AAC1F34041515C0A4A5043E2
:10100000B0FBF1F005B0704708494843FAE700002B
:1010100002030405060708090A0B0C0D0E0F101039
:10102000010200000010024000127A0000093D0099
:101030002DE9F84F040070D02078C04DC00749D08A
:101040006868C0F38100012807D06868C0F3810098
:10105000022809D16868C00306D52868800339D5FD
:1010600060680028E7D035E06068B0F5803F0BD0BD
:1010700010B1B0F5A02F11D0286820F4803028607E
:10108000286820F4802002E0286840F4803028603E
:10109000606890B1FFF786FD06460AE0286840F4D4
:1010A00080202860F0E700BFFFF77CFD801B6428EC
:1010B00073D828688003F7D50CE0FFF773FD064668
:1010C00005E000BFFFF76EFD801B6428F0D828689C
:1010D0008003F7D420789A4E80074FF001094FF033
:1010E000000839D5686810F00C0F07D06868C0F3A5
:1010F0008100022809D16868C00306D428688007E7
:1011000014D52069012808D110E02069B0B1C6F8D3
:101110000090FFF747FD074605E00AE1FFF742FDB3
:10112000C01B0228C4D828688007F7D528686169E1
:1011300020F0F80040EAC10028600DE0C6F8008009
:10114000FFF730FD074604E0FFF72CFDC01B022827
:1011500023D828688007F7D4207800072CD5794851
:10116000A169D9B1C0F80090FFF71CFD074604E063
:10117000FFF718FDC01B02280FD8686A8007F7D553
:1011800071484FF4FA510068B0FBF1F0009000BFD5
:101190000098411E0091FAD20EE080E0C0F8008075
:1011A000FFF700FD074604E0FFF7FCFCC01B022828
:1011B00075D8686A8007F7D42078400760D5E86959
:1011C0000027C00008D4E86940F08050E861E86971
:1011D000012700F0805000905C480168C90513D4D5
:1011E0000168834641F480710160FFF7DBFC8246B1
:1011F00006E000BFFFF7D6FCA0EB0A0064284ED83B
:10120000DBF80000C005F5D5E06801280AD008B178
:10121000052813D0286A20F001002862286A20F0EF
:10122000040002E0286A40F001002862E06841F210
:10123000883B98B1FFF7B6FC82460BE0286A40F085
:1012400004002862EEE700BFFFF7ACFCA0EB0A0148
:1012500059455AD8286A8007F6D50CE0FFF7A2FC5A
:10126000824605E0FFF79EFCA0EB0A0159454CD8E9
:10127000286A8007F6D41FB1E86920F08050E86141
:10128000E06988B36968C1F38101022944D002286A
:10129000C6F8608004D0FFF785FC044638E034E0EF
:1012A000FFF780FC074604E0FFF77CFCC01B022828
:1012B0002BD828688001F7D4206AB0F5803F05D18B
:1012C0006868A16820F4003008436860D4E9080128
:1012D0000843696821F4741108436860C6F8609097
:1012E000FFF760FC044606E025E000BFFFF75AFC6C
:1012F000001B022809D828688001F7D51BE000BF31
:10130000FFF750FC001B022802D90320BDE8F88F2C
:1013100028688001F4D40EE00128F7D06868226ABA
:1013200000F48031914204D1616A00F47010884267
:1013300001D00120EAE70020E8E7000000100240A9
:10134000000042428004424214000020007000402D
:1013500010B5401EB0F1807F01D3012010BD4FF0C9
:10136000E02460610F21601700F0B5F80020A06153
:1013700007202061002010BDFEE700003EB50024DC
:101380000D480094019402940A498460016004733A
:101390000475012505614FF460214460C161FFF7C8
:1013A0002DF904200094CDE9015069460248FFF769
:1013B000A3F83EBD002401401800002070B586B09F
:1013C000002418480094019402940394816941F028
:1013D00020018161816901F020010491816941F05E
:1013E00004018161816901F004010491816941F086
:1013F0000801816180690C4E00F008004FF48055AF
:101400000490002229463046FFF7C6FB01200095D4
:10141000CDE901040220039069463046FFF7CCFA7B
:1014200006B070BD00100240000C0140FEE770479E
:1014300070477047FFF7BCBB30B593B028216846B2
:10144000FEF787FE14210AA8FEF783FE0024012080
:101450000F9402250490009510201194059010948B
:10146000129407946846FFF7E3FD0F20CDE90A04C4
:101470000C940D9400210AA80E94FFF7FDFC0FA810
:101480000F951194FFF782FC13B030BD0D48016831
:1014900041F00101016041680B4A1140416001685F
:1014A0000A4A11400160016821F48021016041680D
:1014B00021F4FE0141604FF41F0181600449C00323
:1014C00008607047001002400000FFF8FFFFF6FEC2
:1014D00008ED00E0FEE70907090E002804DB00F133
:1014E000E02080F80014704700F00F0000F1E020C9
:1014F00080F8141D704702E008C8121F08C1002AB6
:10150000FAD170477047002001E001C1121F002A84
:10151000FBD17047FFF754FBFFF78EFFFFF74EFF3D
:10152000FFF72CFF134C144E4FF066356FF00B078E
:101530004FF4C8781148FFF7B3F964210F48FFF75B
:1015400017F90E48FFF756F820800C48FFF708FA05
:101550002088FEF792FE2A463346FEF705FE3A46FD
:10156000FEF774FEFEF796FE60604046FFF712FA43
:10157000E0E700000000002066660A401800002036
:101580000000000000000000010203040607080933
:101590000000000001020304B8150008000000204C
:1015A00018000000F6140008D015000818000020EC
:1015B00030040000061500080000000000000000D4
:1015C0000100000010000000000000000024F400F2
:04000005080000ED02
:00000001FF
