:020000040800F2
:10000000A816002001010008270F0008950E00081F
:10001000250F0008E7010008FB250008000000008C
:10002000000000000000000000000000ED110008CA
:100030005902000800000000EB110008EF11000851
:100040001B0100081B0100081B0100081B01000820
:100050001B0100081B0100081B0100081B01000810
:100060001B0100081B0100081B0100081B01000800
:100070001B0100081B0100081B0100081B010008F0
:100080001B0100081B0100081B0100081B010008E0
:10009000852500081B0100081B0100081B01000842
:1000A0001B0100081B0100081B0100081B010008C0
:1000B0001B0100081B0100081B0100081B010008B0
:1000C0001B0100081B0100081B0100081B010008A0
:1000D0001B0100081B0100081B0100081B01000890
:1000E0001B0100081B0100081B010008DFF80CD0F1
:1000F00000F03CF8004800477D260008A8160020C4
:100100000648804706480047FEE7FEE7FEE7FEE7B1
:10011000FEE7FEE7FEE7FEE7FEE7FEE75512000812
:10012000ED00000840EA01039B0703D009E008C97D
:10013000121F08C0042AFAD203E011F8013B00F8AC
:10014000013B521EF9D27047D2B201E000F8012BF8
:10015000491EFBD270470022F6E710B513460A4647
:1001600004461946FFF7F0FF204610BD064C074D28
:1001700006E0E06840F0010394E807009847103477
:10018000AC42F6D3FFF7B6FFE426000804270008C8
:1001900070B58C1810F8015B15F0070301D110F849
:1001A000013B2A1106D110F8012B03E010F8016B76
:1001B00001F8016B5B1EF9D12B0705D40023521EF9
:1001C0000DD401F8013BFAE710F8013BCB1A921C61
:1001D00003E013F8015B01F8015B521EF9D5A1425F
:1001E000D8D3002070BDFEE7002070470020704784
:1001F00010B500220449054801F042F904490348BA
:1002000001F038F9002010BDC00E00208801002048
:10021000D80A002010B50146034801F02BF9024826
:1002200001F00CF9002010BD88010020094A10B52A
:10023000D2F8B822D2F814220AB1012010BD0A4621
:100240000146044801F01CF9BDE81040014801F0E6
:1002500075B90000880100207047704770B50446EA
:1002600000F00EF80546601C02D0044800780444F3
:1002700000F006F8401BA042FAD370BD60000020D9
:1002800001488068704700006000002002488168D3
:10029000027811448160704760000020074810B563
:1002A000016841F010010160032000F075F80020A2
:1002B00000F006F800F024F8002010BD00200240F5
:1002C00070B50D4D04464FF47A712878B1FBF0F00B
:1002D0000A490968B1FBF0F000F0C8FD48B9102CDC
:1002E00007D200222146501E00F036F800206C6034
:1002F00070BD012070BD0000600000206C00002077
:100300000C4808B5816941F001018161816901F002
:1003100001010091C16941F08051C161C06900F0E3
:10032000805000900448416821F0E06141F0007184
:10033000416008BD0010024000000140002809DBB8
:1003400000F01F02012191404009800000F1E020EF
:10035000C0F8001170470000F0B40E4B1B680C464B
:10036000C3F30223C3F10705042D00D90425191D89
:10037000072901D2002300E0DB1E012606FA05F161
:10038000491E214099409E40761E16403143F0BCE4
:1003900002F03CB90CED00E0064900F007020868E5
:1003A0004FF6FF03184040EA0220034A104308605A
:1003B000704700000CED00E00000FA0510B50C06D7
:1003C00005D501F0070100EB4110283003E000EBF8
:1003D000411000F5947099B232B10122027301818B
:1003E000190C4181002010BD00220273C180F9E781
:1003F000704700EB4112D0F86802D26B01F04DBAA1
:1004000000EB4112D0F86802D2F83C2101F0A8BA02
:1004100070B504460B0601F0070004EB40114FF0E5
:1004200001024FF0000503D581F82920283103E0AF
:1004300081F8295101F59471087094F82802012877
:1004400008D084F82822206801F0CFFE84F82852D2
:10045000002070BD022070BD70B5044601F00F0091
:100460006268904201D9012070BD0B0601F00700BF
:1004700004EB40114FF001024FF0000503D581F865
:100480002920283103E081F8295101F594718D70FC
:10049000087094F82802012808D084F828222068DF
:1004A00001F046FF84F82852002070BD022070BD84
:1004B00001F0070100EB4110D0F8440170472DE92D
:1004C000F04104460F0601F0070004EB40114FF025
:1004D00001064FF0000503D581F82960283103E0BB
:1004E00081F8295101F5947108700A61CB704A783E
:1004F00002B1C881022B00D10D7194F828020128A5
:1005000009D084F82862206801F03AFD284684F872
:100510002852BDE8F0810220FBE770B50C4601F0DF
:10052000070500EB4511C1E94F230022C1F8442122
:1005300081F8292181F8285101F59471620700683A
:1005400001F04BFF002070BD70B504460D4601F070
:1005500007006168884201D9012070BD29064FF06B
:1005600000064FF0010205D504EB401181F8292067
:10057000283105E004EB451181F8296101F59471FA
:100580008A70087094F82802012807D084F828227D
:10059000206801F009FF680702D006E0022070BD64
:1005A00004F50C71206801F0C1FE84F82862002077
:1005B00070BD70B50C4601F0070500EB4511C1E9AF
:1005C0000F2300224A64012281F8292001F8285FC4
:1005D0006207006801F001FF002070BD10B50446FD
:1005E000006801F0D5FF000402D5204600F09CFC15
:1005F000206801F0CDFF40050CD5206830F8441F7D
:1006000021F480610180204600F0FCF800212046A2
:1006100000F013F9206801F0BBFF400405D5206805
:1006200030F8441F21F480410180206801F0B0FFC0
:10063000800405D5206830F8441F21F40051018062
:10064000206801F0A5FFC00414D5206830F8401FD1
:1006500021F004010180206830F8401F21F00801DA
:100660000180204600F0E1F8206830F8441F21F4B2
:1006700080510180206801F08BFF00051FD52068A4
:1006800030F8401F41F008010180206830F8441F15
:1006900021F400610180206830F8401F41F004011E
:1006A0000180206801F074FFC00405D5206830F88F
:1006B000441F21F480510180204600F0F3F82068A7
:1006C00001F066FF800508D5206830F8441F21F44A
:1006D00000710180204600F0ACF8206801F058FF5E
:1006E000C00505D5206830F8441F21F480710180D1
:1006F00010BD00002DE9F04186B0040004D094F84C
:100700002902002520B108E0012006B0BDE8F081F3
:1007100084F82852204600F057F8032084F8290274
:10072000206801F0FCFD04F110011422884668469F
:10073000FFF7F8FC94E80F0001F055FD0227B0BB6D
:100740000021206801F03EFF002001260DE000BFDF
:1007500004EB401181F8296001F8280FC881CD70A1
:100760000D614D61401CC0B28D6161688142EFD85E
:1007700000200FE004EB401181F8295181F8280195
:1007800081F82B51C1F83851C1F83C51401CC0B21E
:10079000C1F8405161688142ECD814224146684654
:1007A000FFF7C0FC94E80F0001F0AAFD10B184F837
:1007B0002972A9E784F8245084F82962206801F09E
:1007C0009DFD0020A1E7000008B500680B498842A4
:1007D00012D10B48C16941F40001C161C069002216
:1007E00000F40000009011461420FFF7B5FDBDE8AD
:1007F00008401420FFF7A2BD08BD0000005C0040C7
:100800000010024070B5044680680125022801D01E
:10081000FFF723FD2946D4F8680201F088F9D4F8DF
:100820006802BDE8704001F044B9D0F8680201F0F8
:1008300068B9D0F8680201F06EB910B5044690F8B6
:10084000280201280BD0012084F8280284F8241003
:10085000206801F0B9FE002084F8280210BD0220B3
:1008600010BDD0F8682200F50C71104601F06BB98C
:1008700010B5044690F82802012810D0012084F811
:10088000280201462046FFF7B3FD206801F034FD41
:10089000206801F070FE002084F8280210BD0220BC
:1008A00010BD000010B50446D0F8680201F08AF9C6
:1008B000A069002804D00348016841F006010160E6
:1008C00010BD000010ED00E02DE9F843054600786A
:1008D000354CC00754D0E0690026C00008D4E06958
:1008E00040F08050E061E069012600F08050009007
:1008F0002E480168C90512D40168804641F4807110
:100900000160FFF7BDFC074605E000BFFFF7B8FC3C
:10091000C01B642823D8D8F80000C005F6D5206A8B
:1009200010F4407021D0A98801F4407181421CD09C
:10093000206A1F49012220F440700A6000220A60E8
:100940002062C00711D0FFF79BFC074641F28838B0
:1009500008E000BFFFF794FCC11B414502D903200A
:10096000BDE8F883206A8007F4D5206A696820F41E
:100970004070084320621EB1E06920F08050E061C1
:100980002878800705D56068A96820F440400843AE
:1009900060602878C00605D56068E96820F48000AA
:1009A000084360600020DBE7001002400070004058
:1009B000400442422DE9F0470F46050061D0434E06
:1009C000306800F00700B84209D2306820F0070014
:1009D00038433060306800F00700B84251D12868D1
:1009E0003B4C810712D5400703D5606840F4E060B6
:1009F00060602878000703D5606840F4605060604C
:100A00006068A96820F0F000084360602878C0079B
:100A100028D06868012810D02168022810D08907E2
:100A200000292EDA616821F0030101436160FFF7BC
:100A300027FC804641F288390DE021688903EFE701
:100A40008901EDE7FFF71CFCA0EB0801494502D93D
:100A50000320BDE8F0876068696800F00C00B0EB27
:100A6000810FEFD1306800F00700B8420BD9306831
:100A700020F0070038433060306800F00700B842CB
:100A800001D00120E5E72878400705D56068E968CE
:100A900020F4E060084360602878000706D56068AD
:100AA000296920F4605040EAC100606000F018F845
:100AB0006168084AC1F30311515CC84006490860E7
:100AC00006480068FFF7FCFB0020C2E70020024058
:100AD00000100240D42600086C00002064000020B2
:100AE00012A185B00FC98DE80F0014A0144A006848
:100AF00004905168134801F00C03042B10D0082B0C
:100B00000ED1C1F38343C9031DF803000AD5516810
:100B100004AAC1F34041515C0A4A5043B0FBF1F0D2
:100B200005B0704708494843FAE70000020304058E
:100B3000060708090A0B0C0D0E0F10100102000029
:100B40000010024000127A0000093D002DE9F84F24
:100B5000040070D02078C04DC00749D06868C0F349
:100B60008100012807D06868C0F38100022809D1FC
:100B70006868C00306D52868800339D560680028F6
:100B8000E7D035E06068B0F5803F0BD010B1B0F52C
:100B9000A02F11D0286820F480302860286820F425
:100BA000802002E0286840F480302860606890B1BE
:100BB000FFF766FB06460AE0286840F480202860BC
:100BC000F0E700BFFFF75CFB801B642873D8286840
:100BD0008003F7D50CE0FFF753FB064605E000BFA6
:100BE000FFF74EFB801B6428F0D828688003F7D4F9
:100BF00020789A4E80074FF001094FF0000839D550
:100C0000686810F00C0F07D06868C0F381000228F4
:100C100009D16868C00306D42868800714D5206904
:100C2000012808D110E02069B0B1C6F80090FFF7A4
:100C300027FB074605E00AE1FFF722FBC01B02285D
:100C4000C4D828688007F7D52868616920F0F800C3
:100C500040EAC10028600DE0C6F80080FFF710FBF5
:100C6000074604E0FFF70CFBC01B022823D82868C6
:100C70008007F7D4207800072CD57948A169D9B12D
:100C8000C0F80090FFF7FCFA074604E0FFF7F8FA17
:100C9000C01B02280FD8686A8007F7D571484FF447
:100CA000FA510068B0FBF1F0009000BF0098411EBF
:100CB0000091FAD20EE080E0C0F80080FFF7E0FA81
:100CC000074604E0FFF7DCFAC01B022875D8686A03
:100CD0008007F7D42078400760D5E8690027C00076
:100CE00008D4E86940F08050E861E869012700F025
:100CF000805000905C480168C90513D401688346A0
:100D000041F480710160FFF7BBFA824606E000BF44
:100D1000FFF7B6FAA0EB0A0064284ED8DBF8000013
:100D2000C005F5D5E06801280AD008B1052813D020
:100D3000286A20F001002862286A20F0040002E0FE
:100D4000286A40F001002862E06841F2883B98B1CF
:100D5000FFF796FA82460BE0286A40F0040028620A
:100D6000EEE700BFFFF78CFAA0EB0A0159455AD80D
:100D7000286A8007F6D50CE0FFF782FA824605E084
:100D8000FFF77EFAA0EB0A0159454CD8286A800784
:100D9000F6D41FB1E86920F08050E861E06988B3BB
:100DA0006968C1F38101022944D00228C6F8608035
:100DB00004D0FFF765FA044638E034E0FFF760FA44
:100DC000074604E0FFF75CFAC01B02282BD828680E
:100DD0008001F7D4206AB0F5803F05D16868A1682A
:100DE00020F4003008436860D4E9080108436968CA
:100DF00021F4741108436860C6F86090FFF740FA68
:100E0000044606E025E000BFFFF73AFA001B02287F
:100E100009D828688001F7D51BE000BFFFF730FA3A
:100E2000001B022802D90320BDE8F88F2868800142
:100E3000F4D40EE00128F7D06868226A00F480310B
:100E4000914204D1616A00F47010884201D00120FF
:100E5000EAE70020E8E700000010024000004242FC
:100E6000800442426C0000200070004010B5401E1B
:100E7000B0F1807F01D3012010BD4FF0E02460610C
:100E80000F21601701F0C2FB0020A0610720206144
:100E9000002010BDFEE70000F0B500230A24302535
:100EA00037261F4611E000BFB4EB107F02D905EBD7
:100EB000107C01E006EB107C01F813C001EB430C41
:100EC00000015B1C8CF80170DBB29342ECD3F0BDE7
:100ED00010B500220F49104800F0B8FC08B1FFF728
:100EE000BCF90E490C4800F093FE08B1FFF7B5F9C4
:100EF0000B49094800F0B6FA08B1FFF7AEF9064809
:100F000000F0DCFE002803D0BDE81040FFF7A5B9D3
:100F100010BD000000000020880100204C010020CE
:100F200050000020FEE770472DE9F05F044648F6C8
:100F30000F7B4FF0020A4FF480684AE1B0F844108A
:100F400011F00F0629D030F82670390479D530F821
:100F5000261040F68F72114041F0800120F82610D3
:100F600004EB461595F8340105F5947500282068C2
:100F700068D0297830F8212052047DD5B0F850206F
:100F80000AEBC1010A4408EB4201415AC1F30901CD
:100F90005FEA010971D02A89D2E0C9062DD40188FF
:100FA00001EA0B0141F400410180206804F12805A9
:100FB000B0F850202B780AEBC3010A4408EB420139
:100FC000405AC0F309006064E16B0844E06300210B
:100FD0002046FFF70EFA94F824000028ADD0A86947
:100FE0000028AAD194F82400216840F08000A1F8DC
:100FF0004C00002084F82400EBE0018804F594758F
:101000000A0520D5B0F850202B78062101EBC3014A
:101010000A4408EB4201405A04F50C71C0F309037D
:10102000EB61EA88206801F0B7FA2068018840F691
:101030008F72114041F0800101802046FFF711FCC2
:10104000C7E0A2E058E0090455D5018840F68F7248
:10105000114041F0800101802168B1F850202B78C7
:10106000062000EBC300024408EB4200085A830547
:101070009B0DEB6110D001E053E065E0696959B167
:10108000EA88206801F088FAE969686908446861BB
:1010900000212046FFF7B4F92068B0F8501008444A
:1010A000296900F20C4051B13E2910D84A08C907FD
:1010B00000D0521C4FF6FF7101EA82210FE0018837
:1010C00021F4F8410180018841F4004107E04A0918
:1010D000C90600D1521E4FF4004141EA822101802D
:1010E000206801884BF68F72114081F4405148F21C
:1010F0008002114301806CE0B0F850202B7806216B
:1011000001EBC3010A4408EB4201415AC1F3090152
:101110005FEA010924D0EA884B46696901F03CFA8C
:101120001EE0B0F85030062202EBC1015A1808EB5D
:101130004201415AC1F309015FEA010904D06A89F9
:101140004B46696901F028FA2878226832F82010A5
:1011500048F68F73194048F2C003194322F8201053
:10116000E8694844E861686900EB09026A61AB69B3
:1011700013B12869484504D929782046FFF740F97A
:1011800003E029782046FFF7C8F9380621D5216801
:1011900004EB461031F8262002EA0B0242F400422A
:1011A00021F826202168B1F8505010F8282F0AEBBA
:1011B000C2022A4408EB4202895AC1F30901C16103
:1011C00042690A44426101788369204653B1FFF7BE
:1011D000F0F92068B0F8441009043FF5AFAE0020E4
:1011E000BDE8F09FFFF705F9F3E770477047FFF799
:1011F0004DB830B593B028216846FEF7ACFF1421F6
:101200000AA8FEF7A8FF002401200F94109411945F
:10121000010412948DE8130004900005CDE9081034
:10122000022507956846FFF791FC0F20CDE90A05D6
:101230006802CDE90C4001210AA80E94FFF7BAFB21
:1012400010200F90800412900FA8FFF73DFB13B001
:1012500030BD00000D48016841F0010101604168A6
:101260000B4A1140416001680A4A1140016001685F
:1012700021F480210160416821F4FE0141604FF4B6
:101280001F0181600449C0030860704700100240DC
:101290000000FFF8FFFFF6FE08ED00E02DE9F04149
:1012A000D0F8C032D0F8B822CAB101EB810400EB0B
:1012B00084040025E6693EB103EB41139B6BB6FB4A
:1012C000F3F703FB176323B1C2F814520020BDE803
:1012D000F08100231A46E56100F07DFCF6E702206C
:1012E000F5E770B50546D0F8B84200F07AFBC4F8CF
:1012F0000C02D5F8B80248B1D5F8BC12D4F80402F3
:10130000CA6804F503719047002070BD022070BDCB
:1013100070B504460026812100F0B6FA00250121AF
:101320002046E56200F0B0FA82212046C4F86C51F4
:1013300000F0AAFA2564D4F8B80248B1D4F8BC0287
:1013400004F52E7440688047206800F014FE256084
:10135000304670BD10B5D0E9AE4159B194F80002E5
:10136000FF2807D08B6894F8012221469847FF2078
:1013700084F80002002010BD0A2101800048704757
:10138000740000204321018000487047C400002001
:1013900043210180004870478000002043210180E4
:1013A00000487047080100202DE9F041044600265E
:1013B000007C4FF40077012590B340230222812165
:1013C000204600F061FB4023E56202220121204615
:1013D00000F05AFB0823032282212046C4F86C51F6
:1013E00000F052FB4FF40770256400F0C5FDC4F80F
:1013F000B802F8B10546D4F8BC0200688047002066
:10140000C5F81402C5F81802207CD5F8042298B15A
:1014100040230121204600F043FB3046BDE8F08127
:10142000FFE73B4602228121204600F02DFB3B4690
:10143000E562CAE70126F0E73B46EAE710B5D0F8D7
:10144000B81269B1027C002AD1F8042205D04023E9
:10145000012100F025FB002010BD4FF40073F7E7D9
:10146000022010BD02460220002902D00020C2F84E
:10147000BC127047D0F8B802C0F8041200207047C0
:10148000D0F8B802C0F81022C0F808120020704747
:101490002DE9FC410546D0F8B87200208DF8000017
:1014A000ADF80400064608780C4610F0600121D023
:1014B00020293BD1E288AAB10006607807D5D5F88B
:1014C000BC128B6839469847E288394626E087F88F
:1014D0000002A07987F80102E2883946284600F028
:1014E0006AF828E0D5F8BC12607800228B682146A3
:1014F000984720E0607820B10A2809D00B2815D140
:1015000010E095F89C02032810D1022201A905E001
:1015100095F89C02032809D101226946284600F06B
:1015200064F808E095F89C02032804D02146284678
:1015300000F036F802263046BDE8FC8110B5D0F840
:10154000B812A1B1D1F814220AB1012010BD0122B4
:10155000C1F81422D1F810220263B1F8102293B21C
:10156000D1F80822812100F036FB002010BD0220B6
:1015700010BD10B5D0F8B42252689047002010BDBD
:10158000134610B50A46002100F08AFA002010BD6B
:10159000134610B50A46002100F01DFB002010BDC7
:1015A00010B50446802100F0FBFA2046BDE810404B
:1015B000002100F0F5BA10B50323C0F85C21C0F893
:1015C0009432C0F8602113460A46002100F068FA00
:1015D000002010BD10B505210023C0F894121A4652
:1015E000194600F05DFA002010BD10B50223C2615B
:1015F000C0F89432026213460A46002100F0EBFA6A
:10160000002010BD10B504210023C0F894121A4622
:10161000194600F0E0FA002010BD000010B50A469F
:10162000024903A000F0E2F8004810BDD8080020ED
:1016300043444320436F6E666967000012200880B0
:10164000004870472000002010B50A46024903A058
:1016500000F0CCF8004810BDD808002043444320D7
:10166000496E74657266616365000000042008803D
:10167000004870471C00002010B50A46024903A02C
:1016800000F0B4F8004810BDD808002053544D694C
:1016900063726F656C656374726F6E69637300006B
:1016A00010B50A46024903A000F0A0F8004810BD9A
:1016B000D808002053544D33322056697274756136
:1016C0006C20436F6D506F727400000010B51A20CB
:1016D00008800A480168001D0468001D0068081899
:1016E00009D008220649FFF7D7FB0549042210312B
:1016F0002046FFF7D1FB0248801E10BDE8F7FF1F10
:1017000036000020F8B504460020ADF800004888F7
:101710000D46010A082948D2DFE801F047040917FD
:1017200047473C45D4F8B012207C0A6819E0207C79
:1017300002260028D4F8B40205D0C16A684688475A
:10174000014646703EE0816AF8E7C0B206282CD216
:10175000DFE800F0030A1014181CD4F8B002426845
:1017600005E0694690471CE0D4F8B0028268E2B117
:10177000207CF6E7D4F8B002C268F8E7D4F8B002EB
:101780000269F4E7D4F8B0024269F0E7D4F8B00295
:101790008269ECE7207C40B9D4F8B402416B68461A
:1017A000884701460EE0207C20B129462046FFF7FD
:1017B000F7FEF8BDD4F8B402016B684688470146CD
:1017C00007204870BDF8000048B1EA8852B1824253
:1017D00000D90246ADF800202046FFF706FFE88852
:1017E0000028E6D12046FFF70DFFF8BD70B50023B5
:1017F00000281ED00446002502E06D1CEDB2641CDA
:101800002678002EF9D1022404EB450414801278C6
:10181000CA545B1C0322CA5400245B1C06E0CA5451
:101820005B1CDAB28C54521CD3B2401C0278002AE2
:10183000F5D170BD01004FF0000004D0012901D0A6
:10184000022901D0022070470120704710B580B1F5
:10185000D0F8B43213B10023C0F8B43209B1C0F8E3
:10186000B012012180F89C12027000F0BFF8002035
:1018700010BD022010BD10B5D0F8C002FEF7ECFD7F
:10188000BDE81040FFF7D6BF10B5D0F8C002FEF794
:10189000BFFDBDE81040FFF7CDBF2DE9F041174671
:1018A000044651B1D4F8B40242691AB194F89C02CA
:1018B000032851D00220BDE8F081D4F894320025ED
:1018C00004F11400022B03D0042B3AD0C3B33CE044
:1018D000D0E903639E4207D9F11AC1608AB2394642
:1018E0002046FFF755FE12E08068B0FBF3F103FBE2
:1018F000110199B9984211D3D4F8981288420DD2A7
:10190000002211462046FFF743FEC4F898520023F8
:101910001A461946204600F0C3F816E0D4F8B4027F
:10192000C16829B194F89C02032801D12046884758
:101930008021204600F034F92046FFF74BFE04E0FA
:10194000FFE78021204600F02BF994F8A00201283F
:1019500004D184F8A05201E0204690470020AAE775
:1019600070B51546044649B1D4F8B40282691AB17B
:1019700094F89C02032830D0022070BDD4F8941251
:1019800004F5AA70032902D005291ED027E0D0E96A
:1019900003218A420BD9531AC3600846834200D3FD
:1019A00003469AB229462046FFF7EAFD17E0D4F82D
:1019B000B402016929B194F89C02032801D12046A0
:1019C00088472046FFF71EFE09E000200146C4F8C4
:1019D0009402204600F0E4F801E020469047002001
:1019E00070BDD0F8C002FEF763BD000010B504461C
:1019F0001C481D49C0F86842C4F8C00201600821B3
:101A000041600221816000218161C1610162FEF7B4
:101A100071FE08B1FEF721FC0022D4F8C0021823A1
:101A2000114604F53074FEF7C9FC582300228021CA
:101A30002068FEF7C3FCC023002281212068FEF746
:101A4000BDFC4FF48873002201212068FEF7B6FC2C
:101A50004FF48073002282212068FEF7AFFC002043
:101A600010BD00006C060020005C00400A06D0F8A3
:101A7000C00201F07F0100EB411002D590F82A006E
:101A8000704790F82A01704710B51C461346D0F8ED
:101A9000C0022246FEF713FDBDE81040FFF7CABEA4
:101AA00010B5D0F8C002FEF738FDBDE81040FFF7D2
:101AB000C1BE70B50022044640231146FFF7E4FF83
:101AC00040260125C4F86461334600228021204667
:101AD000C4F85851FFF7D8FF6662A56184F89C529C
:101AE0000020C4F894026060C4F8A402D4F8B802DC
:101AF00028B1D4F8B4020021426820469047002063
:101B000070BD90F89C12042903D190F89D1280F8C2
:101B10009C120020704710B590F89C12032904D144
:101B2000D0F8B412C96901B18847002010BD017412
:101B30000020704710B5D0F8C002FEF77EFEBDE869
:101B40001040FFF777BE70B5044600F52A700546D1
:101B500000F04AF80120C4F89402B4F8AE02C4F8C8
:101B6000980294F8A80210F01F010AD001290DD0A4
:101B7000022910D000F08001204600F011F800206A
:101B800070BD2946204600F09EF8F8E72946204619
:101B900000F0CAF9F3E72946204600F01DF9EEE708
:101BA00010B5D0F8C002FEF7CFFCBDE81040FFF73B
:101BB00041BE10B5D0F8C002FEF75AFEBDE8104095
:101BC000FFF738BE90F89C1280F89D12042180F82F
:101BD0009C120020704710B5D0F8C002FEF7E9FC57
:101BE000BDE81040FFF726BE0A7802704A784270BE
:101BF0008A78CB7802EB032242800A794B7902EB98
:101C0000032282808A79C97902EB0121C180704761
:101C10000246002011B1C2F8B4127047022070478A
:101C200010B5D0F8B42202241AB11268904700B956
:101C30000024204610BD000070B50E461E4D897868
:101C400004462970012931D894F89C0202280BD04F
:101C500003280FD031462046FFF7A2FC2978204602
:101C6000BDE87040FFF785BCD9B10320616084F8FE
:101C70009C0209E071B16068884212D0C1B220466E
:101C8000FFF777FC297861602046FFF7C9FF02283B
:101C90000CD006E0022084F89C0220466160FFF729
:101CA00068FC2046BDE87040FFF7ACBC31462046DA
:101CB000BDE87040FFF774BC7000002010B5FFF75E
:101CC00078FF002010BD2DE9F0410A78002612F0BF
:101CD000600208D0202A01D0402A70D1D0F8B42266
:101CE000926890476DE04B78002201250A2B66D25E
:101CF000DFE803F0405D6557650805652C29FFF7AF
:101D000001FD5EE004468888D8B9C888C8B948880B
:101D1000802816D200F07F0794F89C02032810D088
:101D200084F89E7239462046FFF704FF2046FFF7ED
:101D300069FC1FB1022084F89C0242E084F89C52A6
:101D40003FE020463BE0FFF777FF3AE0CB88012BEE
:101D500035D190F89C32012B04D0022B02D0032BFA
:101D60002DD104E08260012200F1080116E0012279
:101D7000011D13E090F89C22012A03D0022A01D011
:101D8000032A1CD1CA88022A19D1C560D0F8A4122E
:101D900009B10321C160022200F10C01FFF725FC0B
:101DA0000FE0498801290CD1C0F8A45211E090F845
:101DB0009C32012B08D0022B06D0032B04D0FFF756
:101DC000EFFB3046BDE8F08149880129F9D1C0F820
:101DD000A422FFF717FCF4E72DE9F0410A46044678
:101DE00010780027097910F060030AD0202B01D069
:101DF000402B50D1D4F8B40211468368204698474E
:101E00008FE0C0F34110012806D05078D0B30128EC
:101E10002AD003283FD107E0D4F8B40211468368E2
:101E20002046BDE8F041184794F89C02022802D0F1
:101E3000032872D10AE071B380296ED02046FFF7E3
:101E4000AFFE80212046FFF7ABFE6AE0508838B92C
:101E500031B1802904D0D08810B92046FFF7A0FE08
:101E60002046FFF7CFFB5CE094F89C020228E2D00A
:101E7000032852D1508898BB4806F1D02046FFF77E
:101E8000FAFCEDE7FFE794F89C020026022803D055
:101E9000032842D112E040E009B180293DD1080673
:101EA00001F07F0000EB800004EB800101D51431CC
:101EB00001E001F5AA7102220E602AE0080601F095
:101EC0000F0000EB800004EB80000AD5806920B38E
:101ED00001F07F0000EB800004EB800514350BE07F
:101EE0001FE0D0F85801C0B101F07F0000EB800086
:101EF00004EB800505F5AA7541B1802906D020467E
:101F0000FFF7B4FD10B10120286000E02E6002222E
:101F100029462046FFF769FB03E011462046FFF7FC
:101F20003FFB3846BDE8F08170B5054608780C46A1
:101F300010F0600003D0202801D0402816D195F879
:101F40009C02012803D0022801D003280ED1207959
:101F500001280BD8D5F8B402826828469047E1885A
:101F6000014306D12846FFF74DFB02E02846FFF764
:101F700017FB002070BD7047004870474C040020DC
:101F80002DE9F0470C784FF0000C30F8243048F67B
:101F90008F121340CA78002A7DD0012A7CD0022AF1
:101FA00003D0032A79D04FF0010C48F2800213438A
:101FB00020F824300D7830F8254048F68F731C4007
:101FC0002C43144320F825400F7B48F6BF744BF692
:101FD0008F7948F2C0054CF28006EFB391F800808B
:101FE000C24630F8287048F280181F4047EA0807B8
:101FF00020F82A70B0F8507091F80080074407EB81
:102000000817B1F8088028F00108A7F80084B0F894
:10201000507091F80080074407EB0817B1F80A8068
:1020200028F00108A7F808844F7891F80080002F65
:1020300030F828704FEA47477ED0002F05DA30F895
:1020400028701F40374320F828700F7830F8278019
:102050005FEA486809D500E033E030F8278008EAF5
:10206000030848EA050820F827800F7830F8275041
:102070001D40354320F82750CB780D78012B30F8E0
:10208000253003EA040301D083F02003134320F832
:1020900025300B7802E00BE010E00CE030F8231064
:1020A00001EA0901114320F823106046BDE8F087DA
:1020B00043F4007379E743F4C06376E743F4806345
:1020C00073E74F7827B3B0F850600F78064406EBFB
:1020D0000716CF8827F00107A6F800740F7830F8AC
:1020E0002760760605D530F827601E402E4320F87D
:1020F0002760CB78012B06D00B7830F823102140D5
:1021000081F02001CEE70B7830F823102140C9E799
:10211000B0F850400D78044404EB0514CD8825F048
:102120000105A4F80854B0F850400D78044404EBBD
:10213000051404F20C4400E030E00D6955B13E2D69
:1021400010D86F08ED0700D07F1C4FF6FF7505EA29
:1021500087250FE0258825F4F8452580258845F456
:10216000004507E06F09ED0600D17F1E4FF40045E2
:1021700045EA872525800D7830F82540640405D58B
:1021800030F825401C40344320F825400B7830F8C7
:10219000231001EA090181F4405183E7002F05DA99
:1021A00030F828701F40374320F828700E7830F838
:1021B00026707F0605D530F826701F402F4320F883
:1021C00026700F7830F827601E402E4320F82760D5
:1021D0000D7830F8253003EA090383F440531343A4
:1021E00020F825308FE7002070472DE9F04391F863
:1021F0000C804F780A7848F6BF7C4BF68F7948F20E
:10220000800348F2C0054CF2800648F68F74B8F19E
:10221000000F28D0002F30F822704FEA474748D0EF
:10222000002F05DA30F822702740374320F822705B
:102230000A7830F822707F0605D530F822702740E2
:102240002F4320F822700D7830F8252022403243A9
:1022500020F825200C7830F8242002EA0C021A43DA
:1022600020F824201AE07FB130F82260760605D5E8
:1022700030F8226026402E4320F822600A7830F899
:10228000221001EA0C010EE030F822506D0405D551
:1022900030F822502540354320F822500A7830F893
:1022A000221001EA0901194320F822100020BDE89C
:1022B000F083002F05DA30F822702740374320F8EA
:1022C00022700A7830F82260760605D530F8226050
:1022D00026402E4320F822600E7830F82620224037
:1022E0002A4320F826200C7830F8242002EA09023C
:1022F0001A4320F82420C1E70020704700207047CF
:1023000000B50121A0F840100021A0F84010A0F86D
:102310004410A0F8501000F02EF9002000BD30F855
:10232000401F21F43F41018000207047002070478A
:1023300030B50A7BB2BB4A7848F68F7548F2800404
:10234000C2B10B7830F82320520607D530F823208D
:102350002A4048F2C0052A4320F82320CA78012ADF
:1023600020D00A7830F8221048F6BF73194081F067
:10237000200114E00A7830F822305B0407D530F8E9
:1023800022302B404CF280052B4320F822300A7873
:1023900030F822104BF68F73194081F440512143DD
:1023A00020F82210002030BD10B54A780978002AA4
:1023B00048F2800330F8212005D048F6BF7422404F
:1023C00082F0100204E04BF68F74224082F48052B7
:1023D0001A4320F82120002010BDF0B50E46054616
:1023E00091F801C00022097B3469B06948F2800786
:1023F000BCF1010F04D0A0424FD9001BB0614EE0E8
:10240000A04202D9001BB06101E00446B26169B18B
:10241000307835F820104906B5F85010294401EB02
:10242000001012D5A0F80C44728911E0A3B2F28812
:102430002846716900F0CEF8B5F85000317828448C
:1024400000EB0110A0F804441EE0A0F80444328917
:10245000A3B22846716900F0BDF8707848F68F7114
:1024600010B1012807D00FE0327835F8220008407B
:1024700048F2C00105E0327835F8220008404CF2FD
:102480008001084325F82200317835F8210048F60C
:10249000BF72104080F0300068E00446B2614FF631
:1024A000FF724FF4004381B3BCF1000F15D027E059
:1024B000018821F4F8410180018841F400410AE0DB
:1024C0003E2C3ED86108E30700D0491C02EA812176
:1024D00001E043EA8121018040E0B5F85000317805
:1024E000284400EB011000F204407CB13E2C15D8CA
:1024F00061085FEAC47C00D0491C02EA81210180A6
:10250000707810B1012821D028E00FE0018821F473
:10251000F8410180018841F40041F0E761095FEA78
:10252000C46C00D1491E43EA8121E8E7B5F85000A8
:102530003178284400EB011000F20C40002CBFD190
:10254000B6E76109E206C4D1491EC2E7B5F85010EA
:102550004819317800EB0110A0F80C44317835F8B7
:1025600021004BF68F72104080F44050384325F81C
:1025700021000020F0BD30F8401F41F43F410180B0
:10258000002070470148FEF729B800006C060020C3
:10259000B0F844007047000010B500EB42005C0842
:1025A00000F5806009D000BF30F8042B01F8012B42
:1025B000120A01F8012B641EF6D1DA0701D0008857
:1025C000087010BD0020704711B98021A0F84C1090
:1025D0000020704710B55B1C00EB42005B0800F563
:1025E000806009D011F8012B11F8014B42EA042256
:1025F00020F8042B5B1EF5D110BDFEE7014A02490D
:1026000000F023B86D260008840100200907090E98
:10261000002804DB00F1E02080F80014704700F08F
:102620000F0000F1E02080F8141D704702E008C898
:10263000121F08C1002AFAD170477047002001E03C
:1026400001C1121F002AFBD170472DE9F041164647
:102650000F460446002503E03946B047641C6D1C54
:1026600020780028F8D12846BDE8F08113B505216F
:102670006846FDF7DBFD00201CBD000008B5FDF736
:102680000DFEFEF7B6FD0E48816941F02001816123
:10269000816901F020010091816941F004018161AB
:1026A000806900F004000090FEF712FC4FF47A7489
:1026B00004A0FFF7A3FF2046FDF7D0FDF8E70000D8
:1026C0000010024048656C6C6F20576F726C64207C
:1026D00000000000000000000000000001020304F0
:1026E00006070809042700080000002088010000F0
:1026F00090010008C4270008880100202015000070
:102700003C260008133D161B086D041A79041AA113
:10271000041ACD041A1D041A4904170403090412EB
:1027200001140202021640830440572602010203EC
:1027300001031A1A0313F1011B08ED041AE904132B
:1027400015021A082F1182105324F4130A063202BC
:102750002A401C1C090243571125C03209041B01E1
:10276000020B13052416100105240110090104248D
:102770000202052406170107058203081C1009043C
:102780008D320A1D07050102432C07058107093810
:10279000442A40072A8107112B0907440A3B0444B5
:1027A00013A9131B08110413911442081A550C1392
:1027B0009D121B08E304C11A91182A851C19041ADA
:0427C0007904410057
:04000005080000ED02
:00000001FF
