:020000040800F2
:10000000A00400200101000867170008011700087C
:1000100065170008DD07000815180008000000003B
:100020000000000000000000000000006B17000846
:100030001708000800000000691700086D17000885
:100040001B0100081B0100081B0100081B01000820
:100050001B0100081B0100081B0100081B01000810
:100060001B0100081B0100081B010008E107000834
:100070001B0100081B0100081B0100081B010008F0
:100080001B0100081B0100081B0100081B010008E0
:100090001B0100081B0100081B0100081B010008D0
:1000A0001B0100081B0100081B0100081B010008C0
:1000B0001B0100081B0100081B0100081B010008B0
:1000C0001B0100081B0100081B0100081B010008A0
:1000D0001B0100081B0100081B0100081B01000890
:1000E0001B0100081B0100081B010008DFF80CD0F1
:1000F00000F0CAFA00480047AD180008A00400202C
:100100000648804706480047FEE7FEE7FEE7FEE7B1
:10011000FEE7FEE7FEE7FEE7FEE7FEE7CD17000895
:10012000ED000008202A04DB203A21FA02F0002129
:10013000704721FA02F3D040C2F1200291400843F7
:1001400019467047D2B201E000F8012B491EFBD2DC
:1001500070470022F6E710B513460A4604461946D2
:10016000FFF7F0FF204610BD2DE9FE4F804681EAE3
:100170000300C00F0C46009021F0004123F0004521
:10018000B8EB0200A94105D24046214690461C46E4
:100190000B46024623F00040104347D0270DC7F31B
:1001A0000A00C3F30A510290401A019040286BDA0A
:1001B000C3F3130040F4801B0098924620B1002343
:1001C000D2EB030A63EB0B0B01985946C0F14002D6
:1001D000504600F0A4F906460D4650465946019A8D
:1001E00000F0ACF910EB08006141002487EA1152DD
:1001F00084EAE7731A4340D0009A62B3019A012A55
:100200004FEA075215DC001B61EB02014FF0004280
:1002100002EA0752CDE90042001C41F58011324646
:100220002B4600F0E3F903B0BDE8F08F40462146CD
:10023000F9E7001B61EB0201001C41F58013001877
:100240005B412018A2F5001747EB030140EAD57087
:10025000B6196D4111E06D084FEA360645EAC075E2
:100260004FEA0752001B61EB0201001C41F58011AF
:1002700049084FEA30000019514132462B4603B07D
:10028000BDE8F04F00F0A3B9009801224000002320
:10029000D0EB020263EBE073009821464FEAE07472
:1002A000B8EB000061EB0401E9E783F000435BE792
:1002B00081F0004158E72DE9FE4F81EA030404F084
:1002C000004421F0004100944FF0000B23F0004364
:1002D00050EA01045ED052EA03045BD0C3F30A542F
:1002E000C1F30A552C44A4F2F3340194A0FB025448
:1002F000C1F3130141F48011C3F3130343F48013DA
:1003000001FB024400FB034E840A970A44EA81542D
:1003100047EA8357A4FB076802958D0A05FB07850A
:100320004FEA932C04FB0C542705029D4FEA065814
:1003300047EA1637B5EB08056EEB070C870E920EF1
:1003400047EA811742EA8312A7FB0201B6EB0B01D1
:1003500064EB00042B0D43EA0C335E1844EB1C5095
:10036000DA465146E7FB0201C5F313044FEA0B33AB
:1003700043EA14534FEA0432019C43EA0603A4F112
:100380000C040294009CCDE900B400F02FF903B0F6
:10039000BDE8F08F00200146F9E72DE9F04D81EA34
:1003A000030404F0004B21F0004514464FF0000A0E
:1003B00023F0004150EA050220D054EA01021DD08A
:1003C000C5F30A570246C5F31303C1F31300C1F383
:1003D0000A5640F4801543F48013A7EB0608101B5F
:1003E000D64608F2FD3873EB050002D308F1010888
:1003F00001E092185B41B8F1000F03DA00200146DA
:10040000BDE8F08D00204FF48011064684460EE0D2
:10041000171B73EB050705D3121B63EB050306439C
:100420004CEA010C49084FEA300092185B4150EA4F
:100430000107EDD152EA030012D082EA040083EAF8
:100440000501084305D0101BAB4106D20122002351
:1004500006E000224FF0004302E06FF0010253106B
:100460001AEB06004CEB085110EB0A0041EB0B01B4
:10047000BDE8F04D00F0ABB870B521F00043034388
:100480000CD0C1F30A550024D5EB040564EB04033A
:10049000D617AD1AB34102DB0020014670BD20180B
:1004A00041EB025170BD0EB540F233410291002183
:1004B000CDE900110A460B4600F098F803B000BDE4
:1004C00000F0004230F000400AD0C10D01F560712B
:1004D000C0F3160042EA0151C208400711437047B9
:1004E00000200146704701F0004330B421F0004184
:1004F00050EA010206D00A0DA2F56072C1F31301A1
:10050000002A02DC30BC00207047440F44EAC104DA
:10051000C100E01830BC00EBC25000F021B8202A26
:1005200004DB203A00FA02F1002070479140C2F14A
:10053000200320FA03F3194390407047202A06DB7A
:10054000CB17203A41FA02F043EAE07306E041FAA1
:1005500002F3D040C2F1200291400843194670478F
:100560000029A8BF7047401C490008BF20F00100C7
:10057000704710B4B0FA80FC00FA0CF050EA0104A5
:1005800004BF10BC704749B1CCF1200421FA04F437
:1005900011FA0CF118BF012121430843A3EB0C0110
:1005A000CB1D4FEA00614FEA102042BF002010BC73
:1005B000704700EBC35010440029A4BF10BC704723
:1005C000401C490008BF20F0010010BC704710B566
:1005D000141E73F1000408DA401C41F10001921866
:1005E0005B411A4301D120F0010010BD2DE9F04D0F
:1005F00092469B4611B1B1FA81F202E0B0FA80F264
:1006000020329046FFF78BFF04460F4640EA0A006F
:1006100041EA0B0153465A46084313D0114653EAA8
:10062000010019D0C8F140025046FFF77BFD054696
:100630000E46504659464246FFF771FF084305D023
:10064000012004E020463946BDE8F08D0020054336
:1006500046EAE0762C4337430A986305E40AA0EBA8
:1006600008000022FD0A44EA47540A3002D500205F
:100670000146E9E7010510196941DDE9084500195E
:100680006941BDE8F04DA2E7064C074D06E0E06881
:1006900040F0010394E8070098471034AC42F6D3C9
:1006A000FFF728FD481900086819000870B50446CE
:1006B00000688168C943C9071CD1816821F0010124
:1006C000816000F099FC05460FE000BF00F094FC4B
:1006D000401B022809D9A06A40F01000A062E06A1D
:1006E00040F00100E062012070BD20688068C043D6
:1006F000C007EBD0002070BD10B50146406A826A89
:1007000012F0500F05D0006A026BBDE81040084699
:100710001047816A41F40071816201688968C1F300
:10072000424107290CD1017B51B9816A21F48071C2
:100730008162816AC90403D4816A41F00101816246
:1007400000F0EAF810BD10B5406A816A41F040013E
:100750008162C16A41F00401C16200F0DFF810BD9E
:1007600010B5406A00F0D9F810BD0000F8B50026B9
:100770000446009600688168C943C90728D081688B
:1007800041F001018160134813490068B0FBF1F0AA
:1007900000E0401E00900028FBD100F02DFC054633
:1007A00011E000BF00F028FC401B02280BD9A06A12
:1007B00040F01000A062E06A40F00100E06284F8BE
:1007C00024600120F8BD20688068C043C007E9D1DB
:1007D0000020F8BD1C00002040420F00FEE7000092
:1007E000014800F0F7B900005C00002030B590F837
:1007F00040500124AC40C56B6C6004686360436882
:10080000102B036803D099600068C26030BD9A6005
:100810000068C16030BD704770470000F8B5002423
:10082000009490F824202546012A12D0012280F855
:1008300024204A681F23072A0DD20668776B521EB0
:1008400002EB820293409F430B6893401F43776300
:1008500019E00220F8BD06680D2A0AD2376BD21FB4
:1008600002EB820293409F430B6893401F43376320
:1008700009E0F76A0D3A02EB820293409F430B684E
:1008800093401F43F7620A68072306680A2A0AD3BF
:10089000F7680A3A02EB420293409F438B68934009
:1008A0001F43F76008E0376902EB420293409F4321
:1008B0008B6893401F4337610A68102A01D0112AC0
:1008C00020D1124B02689A4217D193681B0219D4A7
:1008D000936843F4000393600968102912D10C490E
:1008E0000C4A0968B1FBF2F101EB8101490000E01B
:1008F000491E00910029FBD104E0816A41F02001EA
:100900008162012480F824502046F8BD0024014073
:100910001C00002040420F007047704770470000E5
:100920002DE9F0414FF0000704003D467ED0A06A5B
:10093000002628B9E66284F82460204600F07EF89C
:100940002046FFF7B3FEA16AC90600D420B1A06A11
:1009500040F01000A06269E0A16A21F4885141F0E2
:100960000201A1626268E169237B0A4347EA43010D
:100970000A43A1684FF48077B94209D0012907D012
:100980005FF0000194F814C0BCF1010F02D00AE03E
:100990003946F7E7F3B1A36A43F02003A362E36AA1
:1009A00043F00103E3622368D3F804C02CF4694CDC
:1009B0004CEA010CC3F804C021688B68DFF870C0F2
:1009C00003EA0C0313438B60A168B9420BD00129E1
:1009D00009D00CE0DFF85CC0A3690CEB43330B4398
:1009E00043F40061DFE7218A0D05A5F58015216834
:1009F000CB6A23F470032B43CB62216889680E4BCA
:100A00001940914208D1E662A16A21F0020141F049
:100A10000101A162BDE8F081A06A20F0020040F06F
:100A20001000A062E06A40F00100E0620120F1E7FE
:100A3000FDF7E1FF00E0FFFFFE0E1FFF70B586B07F
:100A40000025064600950195029503950068194911
:100A500088422DD11849886940F4007088618869FE
:100A600000F400700490886940F00400886188698F
:100A7000694600F0040004900320009001900F48A4
:100A800000F0CAF90F4C0E48C4E900058020C4E903
:100A9000025080002061800060612020C4E90605CA
:100AA000204600F041F908B1FFF7B6FE34626662F5
:100AB00006B070BD00240140001002400008014053
:100AC000080002405C0000202DE9F04789460446FA
:100AD0003B4900683B4F0E1D9046884201D0B8420A
:100AE00007D1306810F4702F03D001252846BDE8E7
:100AF000F08794F8240001280CD0012084F8240009
:100B00002046FFF733FE05004FF0000004D084F8C4
:100B10002400EBE70220EAE7A16A40F60162914374
:100B200041F48071A1622168B94218D1326812F48F
:100B3000702F14D0A16A41F48011A1623168490577
:100B400005D5A16A21F4005141F48051A162A16A46
:100B5000C9040AD5E16A21F00601E16206E0A26A51
:100B600022F48012A2624968E9E7E06284F8240076
:100B7000216A15488862216A1448C862216A1448AB
:100B8000086321686FF0020008602068816841F402
:100B900080718160216843464A464C31206A00F0EA
:100BA000F1F820688168C1F342410729816803D0C8
:100BB00041F48011816099E741F4A001FAE7000057
:100BC0000024014000280140F906000861070008E0
:100BD000470700082DE9F05FC16B0C6801680B68DE
:100BE000D0F840C0042202FA0CF2494DDFF824A1EB
:100BF000494E4A4FDFF828B1DFF828E122422CD0D5
:100C00005A072AD50A68920603D40A6822F0040219
:100C10000A600168A94201D1042219E0514501D1BD
:100C2000402215E0B14202D14FF4806210E0B94297
:100C300002D14FF480420BE0594502D14FF480229B
:100C400006E0714502D14FF4800201E04FF080626E
:100C50002F4908394A60C16A3BE04FF0020808FAA0
:100C60000CF818EA040F4FF000094FF0010235D0DC
:100C70005FEA837832D50B689B0605D40B6823F0B6
:100C80000A030B6080F821200168A94201D10222E9
:100C900019E0514501D1202215E0B14202D14FF4B3
:100CA000007210E0B94202D14FF400520BE05945F6
:100CB00002D14FF4003206E0714502D14FF4001228
:100CC00001E04FF00072124908394A6080F8209024
:100CD000816A00291AD0BDE8F05F0847082505FAA7
:100CE0000CF5254212D01B0710D50B6823F00E031C
:100CF0000B6090F84010C36B02FA01F159608263F7
:100D000080F8212080F82090016BE2E7BDE8F09F99
:100D1000080002401C000240300002404400024033
:100D2000580002406C00024030B528B308C813498F
:100D300014221944B1FBF2F18900C16310498163A7
:100D4000022141771A6843F6F0718A43D0E9001412
:100D50002143D0E902452C432143046921434469DE
:100D60002143846921431143196000214163012219
:100D700042770177084630BD012030BDF8FFFDBF46
:100D80000000024070B5044690F8200000250128BC
:100D90000CD0012084F8200094F821600020012E5E
:100DA00006D084F820000225284670BD022070BDC0
:100DB000022684F82160A0632068066826F00106F8
:100DC00006602046FFF712FDE06A002820680168EF
:100DD00002D041F00E0106E021F00401016020681C
:100DE000016841F00A0101602068016841F00101D9
:100DF0000160D9E770B5044600F0FEF80546601CB6
:100E000002D004480078044400F0F6F8401BA042E9
:100E1000FAD370BD100000202DE9F84FDFF8B8912B
:100E2000002409F1040A0AF1040B23460F270BF1F1
:100E3000040EC9E00125A5402A40AA427DD1674E93
:100E4000D1F804C0ACEB0608B44532D014DCBCF1D8
:100E5000030F3AD009DCBCF1000F2AD0BCF1010F1E
:100E60001CD0BCF1020F31D11DE0BCF1110F17D025
:100E7000BCF1120F2AD119E0B8F5881F19D006DC91
:100E8000B8F5803F15D0B8F5801F1FD111E0B8F537
:100E9000001F0ED0B8F5041F18D10AE0CB6815E08A
:100EA000CB681B1D12E0CB6808330FE0CB680C3316
:100EB0000CE08B682BB1012B4FF0080303D0456188
:100EC00004E0042302E0056100E00023FF2A01D8CA
:100ED000064601E000F104064FEA840501D9A5F1B8
:100EE0002005D6F8008007FA05FC28EA0C0803FA6A
:100EF00005F548EA0508C6F800804D68ED0062D5A2
:100F0000374DAE6946F00106AE61AD6924F00306C7
:100F100005F001050095334D06EB050CDCF8085093
:100F2000A607360F07FA06F825EA0805DFF8B880A5
:100F3000404503D14FF0000817E044E0DFF8AC80F3
:100F4000404502D14FF001080FE0DFF8A480404592
:100F500002D14FF0020808E0DFF89880404502D146
:100F60004FF0030801E04FF0040808FA06F848EAD9
:100F70000508CCF808804D68D9F80060ED034D46AF
:100F800001D5164300E096432E604D68DAF8006004
:100F9000AD03554601D5164300E096432E604D68DB
:100FA000DBF80060ED025D4601D5164300E0964394
:100FB0002E604D68DEF80060AD02754601D516431F
:100FC00000E096432E60641C0D682A46E5407FF4DD
:100FD00031AFBDE8F88F000000040140000011109F
:100FE000001002400000014000080140000C0140D8
:100FF0000010014000140140014880687047000063
:101000001000002002488168027811448160704716
:1010100010000020074810B5016841F01001016080
:10102000032000F075F8002000F006F800F024F826
:10103000002010BD0020024070B50D4D04464FF455
:101040007A712878B1FBF0F00A490968B1FBF0F039
:1010500000F042FB48B9102C07D200222146501E56
:1010600000F036F800206C6070BD012070BD0000FB
:10107000100000201C0000200C4808B5816941F0D8
:1010800001018161816901F001010091C16941F0B3
:101090008051C161C06900F08050009004484168EF
:1010A00021F0E06141F00071416008BD0010024094
:1010B00000000140002809DB00F01F0201219140DF
:1010C0004009800000F1E020C0F8001170470000E6
:1010D000F0B40E4B1B680C46C3F30223C3F10705A3
:1010E000042D00D90425191D072901D2002300E091
:1010F000DB1E012606FA05F1491E214099409E405B
:10110000761E16403143F0BC00F085BB0CED00E0CC
:10111000064900F0070208684FF6FF03184040EA4E
:101120000220034A10430860704700000CED00E005
:101130000000FA052DE9F84305460078354CC00754
:1011400054D0E0690026C00008D4E06940F0805027
:10115000E061E069012600F0805000902E480168AF
:10116000C90512D40168804641F480710160FFF71F
:1011700043FF074605E000BFFFF73EFFC01B6428A2
:1011800023D8D8F80000C005F6D5206A10F44070C6
:1011900021D0A98801F4407181421CD0206A1F49E6
:1011A000012220F440700A6000220A602062C00719
:1011B00011D0FFF721FF074641F2883808E000BF51
:1011C000FFF71AFFC11B414502D90320BDE8F88390
:1011D000206A8007F4D5206A696820F440700843CB
:1011E00020621EB1E06920F08050E061287880071D
:1011F00005D56068A96820F44040084360602878FD
:10120000C00605D56068E96820F480000843606086
:101210000020DBE700100240007000404004424222
:101220002DE9F0470F46050061D0434E306800F0CD
:101230000700B84209D2306820F007003843306018
:10124000306800F00700B84251D128683B4C810754
:1012500012D5400703D5606840F4E06060602878EC
:10126000000703D5606840F4605060606068A9685A
:1012700020F0F000084360602878C00728D0686834
:10128000012810D02168022810D0890700292EDA01
:10129000616821F0030101436160FFF7ADFE804604
:1012A00041F288390DE021688903EFE78901EDE714
:1012B000FFF7A2FEA0EB0801494502D90320BDE8D3
:1012C000F0876068696800F00C00B0EB810FEFD127
:1012D000306800F00700B8420BD9306820F00700F2
:1012E00038433060306800F00700B84201D0012078
:1012F000E5E72878400705D56068E96820F4E060F4
:10130000084360602878000706D56068296920F4E2
:10131000605040EAC100606000F018F86168084A57
:10132000C1F30311515CC8400649086006480068D3
:10133000FFF782FE0020C2E70020024000100240BA
:10134000381900081C0000201400002012A185B0EC
:101350000FC98DE80F0014A0144A0068049051686A
:10136000134801F00C03042B10D0082B0ED1C1F34D
:101370008343C9031DF803000AD5516804AAC1F3C9
:101380004041515C0A4A5043B0FBF1F005B0704750
:1013900008494843FAE70000020304050607080964
:1013A0000A0B0C0D0E0F101001020000001002407D
:1013B00000127A0000093D002DE9F84F040070D0BA
:1013C0002078C04DC00749D06868C0F3810001286B
:1013D00007D06868C0F38100022809D16868C0039B
:1013E00006D52868800339D560680028E7D035E045
:1013F0006068B0F5803F0BD010B1B0F5A02F11D0D0
:10140000286820F480302860286820F4802002E0DA
:10141000286840F480302860606890B1FFF7ECFDE8
:1014200006460AE0286840F480202860F0E700BF04
:10143000FFF7E2FD801B642873D828688003F7D586
:101440000CE0FFF7D9FD064605E000BFFFF7D4FD2D
:10145000801B6428F0D828688003F7D420789A4E3F
:1014600080074FF001094FF0000839D5686810F087
:101470000C0F07D06868C0F38100022809D16868A2
:10148000C00306D42868800714D52069012808D134
:1014900010E02069B0B1C6F80090FFF7ADFD074637
:1014A00005E00AE1FFF7A8FDC01B0228C4D82868A0
:1014B0008007F7D52868616920F0F80040EAC1008C
:1014C00028600DE0C6F80080FFF796FD074604E0AF
:1014D000FFF792FDC01B022823D828688007F7D4A5
:1014E000207800072CD57948A169D9B1C0F80090BF
:1014F000FFF782FD074604E0FFF77EFDC01B0228D0
:101500000FD8686A8007F7D571484FF4FA51006820
:10151000B0FBF1F0009000BF0098411E0091FAD29C
:101520000EE080E0C0F80080FFF766FD074604E0AB
:10153000FFF762FDC01B022875D8686A8007F7D4E0
:101540002078400760D5E8690027C00008D4E86922
:1015500040F08050E861E869012700F08050009079
:101560005C480168C90513D40168834641F4807161
:101570000160FFF741FD824606E000BFFFF73CFD3A
:10158000A0EB0A0064284ED8DBF80000C005F5D5B2
:10159000E06801280AD008B1052813D0286A20F095
:1015A00001002862286A20F0040002E0286A40F066
:1015B00001002862E06841F2883B98B1FFF71CFD0A
:1015C00082460BE0286A40F004002862EEE700BF84
:1015D000FFF712FDA0EB0A0159455AD8286A800787
:1015E000F6D50CE0FFF708FD824605E0FFF704FDA5
:1015F000A0EB0A0159454CD8286A8007F6D41FB1E0
:10160000E86920F08050E861E06988B36968C1F357
:101610008101022944D00228C6F8608004D0FFF777
:10162000EBFC044638E034E0FFF7E6FC074604E054
:10163000FFF7E2FCC01B02282BD828688001F7D4F2
:10164000206AB0F5803F05D16868A16820F40030B9
:1016500008436860D4E908010843696821F47411FB
:1016600008436860C6F86090FFF7C6FC044606E0D1
:1016700025E000BFFFF7C0FC001B022809D828683E
:101680008001F7D51BE000BFFFF7B6FC001B022866
:1016900002D90320BDE8F88F28688001F4D40EE059
:1016A0000128F7D06868226A00F48031914204D1A1
:1016B000616A00F47010884201D00120EAE700203E
:1016C000E8E700000010024000004242800442426D
:1016D0001C0000200070004010B5401EB0F1807F5B
:1016E00001D3012010BD4FF0E02460610F2160178D
:1016F00000F091F80020A06107202061002010BDBB
:10170000FEE70000FEB5002415480094019413493B
:101710000294016089158160012505730475032613
:1017200006614FF460214460C161FFF7F9F88DE86C
:10173000700069460A48FFF771F80220CDE90050B1
:1017400069460748FFF76AF81020CDE90006062031
:10175000029069460248FFF761F8FEBD002401408F
:1017600020000020FEE7704770477047FFF74ABC33
:1017700030B593B028216846FEF7EBFC14210AA887
:10178000FEF7E7FC002401200F941094119401044B
:1017900012948DE8130004908004CDE9081002250E
:1017A00007956846FFF708FE0F20CDE90A05680295
:1017B000CDE90C4000210AA80E94FFF731FD0FA8D7
:1017C0000F951194FFF7B6FC13B030BD0D480168BA
:1017D00041F00101016041680B4A1140416001681C
:1017E0000A4A11400160016821F4802101604168CA
:1017F00021F4FE0141604FF41F0181600449C003E0
:1018000008607047001002400000FFF8FFFFF6FE7E
:1018100008ED00E0FEE70907090E002804DB00F1EF
:10182000E02080F80014704700F00F0000F1E02085
:1018300080F8141D704702E008C8121F08C1002A72
:10184000FAD170477047002001E001C1121F002A41
:10185000FBD1704710B5FEF726FE4FF066320D4BF8
:10186000FEF729FD6FF00B02FEF706FEFEF73BFECA
:10187000FEF726FE084A094BFEF71AFD084A094BF7
:10188000FEF78BFD0022084BFEF76EFCBDE8104012
:10189000FEF729BE66660A40E17A14AE47E1F63FDC
:1018A00022FDF675E09C713F0000394008B5FFF756
:1018B000B1FBFFF75DFF1D48816941F020018161A7
:1018C000816901F020010091816941F00401816189
:1018D000816901F004010091416941F00101416118
:1018E0004069002200F00100009011460B20FFF734
:1018F000EFFB0B20FFF7DEFBFFF704FF0C49032291
:10190000A1F13000FFF7E0F8094D0A4C4FF496764C
:10191000286860606868A060A868E060FFF79AFFC8
:1019200020603046FFF766FAF2E700000010024040
:101930005000002000000020000000000000000017
:1019400001020304060708096819000800000020C6
:101950002000000036180008881900082000002028
:10196000800400004618000800000000000000008D
:101970000000000000000000010000001000000056
:08198000000000000024F40047
:04000005080000ED02
:00000001FF
